S123F0007EF18F39860D3939860A8D16860D8D123F087ECD03BDF3E9397DDE32270AAD9FDA
S123F020DE327EF0577EF02B7EF03E3402B6EF058508260535021A043935021CFB39BDF058
S123F040447EF057BDF04A24FB39B6EF05444444442403B6EF04393404F6EF05C51027F97A
S123F060B7EF04350439FEDE2BEE44270CA6D4A54627F610AEC46ED8023B34708D1427040D
S123F080EF04AF2435F034708D082604AE04AF4435F0FEDE2B31C4AC442706EE4426F61CD1
S123F0A0FB398EDE346E9FD3E13939B6E8087CD373B6D373816426567FD3737CD372B6D371
S123F0C072813C26497FD3727CD371B6D371813C263C7FD3717CD370B6D3708118262F7F09
S123F0E0D3707CCC0FB6CC0F308D0025F6CC0E5A30854CA18426178601B7CC0F7CCC0EB64D
S123F100CC0E810D26088601B7CC0E7CCC107EC7001F1C1F1E1F1E1F1F1E1F1E1FBFDE4155
S123F120F7DE3CB7DE3B8D0CBDF195C1FF27025F39C60139B7DE3B27035A20045D27015A36
S123F140F7DE3C3939BFDE41B7DE3BF7DE3C8DE47EF192C608395F395F39BDF0158EDE1E74
S123F160C60C6F805A26FB39BDF0157DCC3026028680398D025F39A603810323014FB7DE18
S123F1803D1CFE395F1CFE398D008D008D00397EF4427EF1E27EF3F97EF2427EF24C7EF2FC
S110F1A0387EF2737EF28C7EF29E7EF34B7D
S114F1CFBDF3E9BDF39F850127F9BDF3C3BDF3267ED6
S123F1E0F1D286EEBDF2DEBDF35F850427F98602BDF2DEB6DE3DBDF2DEB6DE3CBDF2DEB609
S123F200DE3BBDF2DE4FBDF2DEB6DE42BDF2DEB6DE41BDF2DEBDF35F851027F9BEDE415FA3
S123F220A600BDF30230015A26F686AABDF2DEBDF35F852027F95F39BDF39F84012702861F
S123F240FF39BDF39F4D27FABDF3C339BDF326397EF0197EF0227EF0253404F6ED00C5026E
S123F260270535047EF0443504BDF39F850127F91601503404F6ED00C5022704350420D0A8
S123F2803504BDF39F850127F91701373404F6ED00C5022704350420BA35041600883402C0
S123F2A0B6ED0085022704350220ABBDF39F8501260535021A043935021CFB398680B5EE35
S123F2C00E27FB39C6FFF7EE0CC604F7EE0DB7EE0C39C600F7EE0E7FEE0D7FEE0C39340448
S123F2E0C6FFF7EE0CC604F7EE0DB7EE0CC661F7EE0E8DC8C600F7EE0E7FEE0D7FEE0C3597
S123F30004393404C6FFF7EE0CC604F7EE0DB7EE0CC671F7EE0E8DA4C600F7EE0E7FEE0DC3
S123F3207FEE0C3504393406C6FFF7EE0CC604F7EE0DB7EE0CC651F7EE0EBDF2BCC600F74F
S123F340EE0E7FEE0D7FEE0C350639340417FF74C604F7EE0E5F5A26FD17FF7635043934B9
S123F36004C604F7EE0DC621F7EE0EBDF2BCB6EE0CC600F7EE0E7FEE0D7FEE0C3504393482
S123F38004C604F7EE0DC631F7EE0EBDF2BCB6EE0CC600F7EE0E7FEE0D7FEE0C3504393452
S123F3A004F6DE4AC10D2716C604F7EE0DC601F7EE0EBDF2BCB6EE0C17FF17350439860165
S123F3C03504393404F6DE4AC10D2719C604F7EE0DC611F7EE0EBDF2BCB6EE0C17FEF33575
S123F3E004B7DE4A39860A20F67FEE0F8675B7EE0E8604B7EE0F16FED986EEBDF2DEBDF341
S123F4005F850427F98601BDF2DEB6DE3DBDF2DEB6DE3CBDF2DEB6DE3BBDF2DE4FBDF2DED9
S123F420B6DE42BDF2DEB6DE41BDF2DEBDF35F851027F9BEDE415FBDF37FA78430015A26F8
S123F440F639BDF3E9B6EE0E858027F98EC0006F0030018CDEFF26F7860FB7DE3D4FB7DE4A
S123F4603C7FDE3B8EC400BFDE41C61B34043402BDF195BFDE41860FB7DE3D35024CB7DE95
S123F4803C35045A26E67FDE3C7FDE3D7ECD00BDF5A4BDF50DBDF4D27ECD03BDF50DBDF5B8
S123F4A067BDF676BDF6C9392404C6302002C610F7ED00CA40F7ED0039448DEC448DE94427
S123F4C08DE6448DE3448DE0448DDD448DDA448DD739C670F7ED027FED0086BE8DDBB6DE4E
S123F4E0488DD6B6DE478DD1B6DE468DCCB6DE448DC7B6DE438DC2B6DE498DBDB6DE458D12
S123F500B886008DB486A58DB07FED0039C670F7ED027FED00868E8DA086008D9C7FED0077
S123F520393402C610F7ED00B6ED00C650F7ED0084203502394F8DE927028A018DE32702DB
S123F5408A028DDD27028A048DD727028A088DD127028A108DCB27028A208DC527028A404A
S123F5608DBF27028A8039C670F7ED027FED0086BFBDF4B9C650F7ED028DBAB7DE488DB536
S123F580B7DE478DB0B7DE468DABB7DE448DA6B7DE438DA1B7DE498D9CB7DE458D978D9502
S123F5A07FED003912308D0066BDCE79108EDE438D148D128D108D0E8D0C8D0A8EF65BBD66
S123F5C0CE79BDCEB139BDF5D62404326220D6C16322F8E7A0398E0000BFD40D5FBDF6658E
S123F5E0252A813025208030B7D40DBDF665251C8130251280303402F6D40D58585858EB31
S123F600E0F7D40D20E5BED40D1CFE391A0139454E544552204441544520414E4420544977
S123F6204D45284D4D2C44442C59592D48482C4D492C5353293A20044441544520414E44F7
S123F6402054494D45284D4D2C44442C59592D48482C4D492C5353293A20045448414E4BB5
S123F66020594F5504BDCEF7812027F9813923031A01391CFE398EDE43BDCFD0862FBDCF4F
S123F6803D8EDE44BDCFD0862FBDCF3D8EDE45BDCFD0862DBDCF3D8EDE46BDCFD0863ABD8B
S123F6A0CF3D8EDE47BDCFD0863ABDCF3D8EDE48BDCFD0BDCEB139A60044444444C60A3D5A
S123F6C03404E600C40FEBE0398EDE43BDF6B7F7CC0E8EDE45BDF6B7F7CC108EDE44BDF6F6
S123F6E0B7F7CC0F8EDE46BDF6B7F7D3708EDE47BDF6B7F7D3718EDE48BDF6B7F7D372393C
S123F800308DE7BE1F101F8B979D3384318C32EF81C61634041F20E3A1ED816AE426F6C6EA
S123F8200DA6A0A7805A26F93584328DE7238DD04F1F8BF6ED00C50226037EFC3D3F082008
S123F840EF01580296029402920274028E0045022FFFD90298028802A10292029E029B03AB
S123F8609002AD02C802B5E7950476012DEF0400000000E8080000000039019801B501CF65
S123F88001C70179017701C4017D00550181025A01D56A8DE6FA170229EE6A335F0DFB262D
S123F8A011170693505A2B0A11A3A126F8EF6A1602220FFB3706C10B10220213EF6A583360
S123F8C08CB8ECC56ECB41535349535430390410DF976D61260DAD9DE6FCAD9DE6FE308C15
S123F8E0E53F039EF6270D6F026F03CC01A6A701E7846F013F0617063E2A0C50D7FA5A2BC0
S123F90006A630A7B120F7AE6A9F93863E3F0133E4DF954F5FDD9BDD8FDD91C602340717A5
S123F920044D308D057A812E275A308D04E2812F27528120231434026C5F812F274F170420
S123F9400427026A5E17042720E8800DA75D9EC4E6802A109EEE5C27F710DE95308D015E2C
S123F9603F0220905AE15F24033A20E4315DA65F8002A75E5AA680A1A226EE6A5E26F53A85
S123F980EC1E308B6D5D32C4AD1E16FF7A6D5E2BC83088AEDC9B20ECFE0442054604430403
S123F9A010044404960445059704460292044703C7044C04D2044D0402044E04F2044F045D
S123F9C0FF045004A404520279045304E7045404CB045604C40457045DFFA6803406C610DB
S123F9E03D8D043506840F8B90198940196E9DE5ED8DE78DE5AF648620203DA6618134229A
S123FA0039109EC2EEA6EF64AF7E272EAFA6202A8D5D8D5F24FA4D27F9817F27F5A7610D9F
S123FA208F2617810D2604860A8DC20DF4260BA661308C09810A270F8DB30C903B04308CC9
S123FA40FC860D8DA8860A8DA4A680810426F88D1E8D061FA9E7E420E18D182405811826F5
S123FA600253398D0A8D0C24FA811827F44F396E9DE577AD9DE561847F394F502D048D4298
S123FA800D8F26340D902B29306C9CF82523308CE93F02098E308DE5003F058D172537069A
S123FAA08E25339E91272F301F9F9127298DAA25251603EC1701AE390F8F1702E03B3F076B
S123FAC02004E68DE4D71F9BA163272C10DE97308CEC3F038DDE16FE1D8DE720F7CEEF0468
S123FAE0A641444444442402A6C4398EEF046F01860BA702861EA703393447CEEF048D05C2
S123FB0035C717FF6AE641C51027FAA7C43986116D6626014C3F010C8F3986143F014A3F50
S123FB20010A8F8E61A8301F26FC39EE626D662754327D3F00815326FA3F008139272281A3
S123FB403126F26FE48D21E7618D1DE7628D19A66231CB8D13270C6D692B02E7A4E1A02769
S123FB60F235924C27CD20F98D12C6103D8D0D3404ABE01F89AB62A7626A63393F00170145
S123FB80D727F835F2DEF2AE643456CC0018D7F23F01C604DDF2EC68A36210830018250227
S123FBA0C6175CE7E4CB03E761308C333F035F30618D278D258D23AE628D1F6AE426FAAF17
S123FBC06253E76130618D14AE68AC6224C8308C113F03EC64DDF24F35D6EB8416FDFB538A
S123FBE03104533930333030303046430D0A043F06C6063F075A26FB5F1F9817FDE93F074E
S123FC003F075CC11025F23F06252F30643F05AE64C6103F045A26FB3F07AE64C610A680EB
S123FC202B0481202402862E3F015A26F1AC622409AF64A6654826CF20B53F0639BDF000CF
S123FC408D234C8D21395043FF1341000A42000B58FF0D59FF0F55FF1153FF01434300096E
S123FC604450000C004F30E8103432318CD8ECA04D2F043F0120F7862D3F0130E56DE4268C
S123FC80126D3F27033F058C3F04ECA05D26DF3F0635B28D402710810D271EE63F5A50584D
S123FCA03F075A26FB20E3A7E4DC9B6D3F2602A682ED84A6E4810D26D1308DE294C61535BB
S123FCC002A7805A26F910EE88ECC615A68234025A26F920BC4F8C8620978E6E9DE30D34A9
S123FCE0148D5C2718918E27F89E9E814D27169E93815027109EA08157270A35948D4427FE
S123FD00FC200AAE849F9B0D8E27F08D629E9B812B260E8D233402DC9B308B9F9B350220EA
S123FD20EC812D2707814027DA5F20CF8D0A3402DC9B4050820020E18D9D273216FC1A0FD2
S123FD409B0F9C8D2A8D112625C6103D860458099C099B4A26F820148130251281392F0A04
S123FD608141250A814622068007840F1A04393F00811827C7398D013B3530341026191767
S123FD8001B5AE6C5A2B16A630ACA126F7813F260297FB0C8F1601061700BBED6C170197A8
S123FDA000FA5A2BC9A6B4A730863FA7B120F38DC8357FADF13F0A20FC17009ADD9E9E9E22
S123FDC017FC17862D3F0117FF0B270A812C260E9F9E300120F1D69C8D47812C27E98127A5
S123FDE0260C8D8B8127270C1F898D3520F4812026069F9E3F0720C6810A2608860D3F019A
S123FE009F9E200A815E260A301E9F9E3F068D0720AC812F27F6399E9E341030E43F053525
S123FE20909E9EE780E11F26039F9E393402863F3F0135828D20DDA0398D1BC4F01F0230EA
S123FE402F25048D1130AB343010A3622302EDE4AD9DE18E35E017FE7E2609812F22058176
S123FE600EDC9B3916FAF28DED1F028DE96FE23426AD9DE16FAD9DE16D3401AD9DE16935D2
S123FE800126E135B28D010133F133D427038DC68C4F5F344E20DA8DEFFF8DBADD913262BE
S123FEA0EEF80ADF99DEF6CC0701ED423B8DA7DDF23927058DA0DDF839306E9FF8398D9690
S123FEC01F018D9230013430A3E4EDE430611DA1E426023F04EEE4335FEF843F053F0635BF
S123FEE096272317FDF1272C812D263E17FDE827030FFA398D3F5A2B31ACA126F9AEA1AF60
S123FF003C5A2AF90AFA8D2D27E930A13F055A26F93F06395AC1082711A684E784E18426CF
S123FF2009A7845A2B07ACA126F916FA2CAFA46F310CFA20D19E9B318DE077D6FA396FE2C3
S123FF405F308C3F3F00815B26068610A7E43F00810D270C6D842BD2A18126F8EB1F20EE95
S123FF60308C491F988460AAE4A7E4C49F6D8427B9E18126F8E61FEAE4E7E430E43F043FDC
S123FF8006358441044205440648014801480148002C002D092D0153705930555058102B91
S123FFA0072B015080430052005D00FF108411001288138914861585168B178018811982CE
S123FFC01A83828C838D039F006E9DDFF96E9DDFF76E9DDFF56E9DDFF36E9DDFF16E9DDF7B
S108FFE0EF6E9DDFED52
S113FFF0FFC9FFCDFFD1FFD5FFD9FFDDFFE1F82A0F
S9030000FC
