S123C4002005822E893A818639B7D3FDCCCD03FDCC16FCD3F7FDCD4FFCD3F9FDCD10FDCDF3
S123C42013FCD3FBFDCD0AFDCD0DAD9FD3F58EC4CEBDCE79BDCD24BDF49BBDCD24BDDE18DD
S123C4408EC840BDDE0F8601A784BDD4062709A6018104263B7ECD03108EC08010BFCC14B7
S123C460C680BDD40626295A2726A7A0810D26F28604A784BDD4067ECD06BDCD4834102520
S123C4800DA6A45D1A012704A6611CFEA7A035868EC4BBBDCE797ECD0334148EC4F6860402
S123C4A02006800AA7848601AB828A30A784813922F03594AD9FD3F186023943616E2774F1
S123C4C02072756E20535441525455502E04464C455820666F72204D433638303920566566
S123C4E07273696F6E20322E393A32202D204E3856454D04343834384B2072616D0404443A
S123C50061746520616E642054494D4520284D4D2F44442F59592048482F4D4D2F5353294A
S106C5203F2004B1
S123C7007EC7237EC75C7EC75D7EC74C7EC7577EC71F0C00000000C4CEC4CE000000006E3B
S123C7209FD3E71A50BECC3110EF027DCC3426118ECCFC7CCC346D842707BFCC3110EE0215
S123C7403B8ECCF87FCC3420F1113F121A507DCC3026F67CCC30397FCC301CAF391A507D40
S123C760C71B2729BEC719A6843402EC018EC980ED88403502A7036F848601A7026F8822EF
S123C7806F883B7DC71E270F113F1220F67FCCFC1CAF113F1220F67DC71D26278EC980BD87
S123C7A0D406261F7DC71C270F7FC71C810A270F3402860A8D3F3502810D2603B7C71C8DF6
S123C7C03420D4860D8D2E860A8D2AB6C7128D257FC71DBEC7196D0327056A037EC75D307B
S120C7E0048CC84026038EC4CEBFC7197AC71B7EC75D113F12BDCCD82AF87ECCE4A7
S117C840FF0000007374617274757000747874007ECD0039EA
S123CC0008183A185000000800001B0001000000000000000000000000000000000000002A
S123CC200000000000000000000000B8000000010000000000000000000000000000000037
S123CC400000000000000000006000000000CCAC574841543F0443414E2754205452414EDF
S123CC6053464552044E4F5420464F554E44044449534B204552524F52202304445249569A
S123CC8045204E4F542052454144590447455400D21A4D4F4E00D35600271003E80064003C
S113CCA00A6572726F727300007379732B2B2B04F5
S104CCC03936
S104CCD8391E
S104CCE43912
S10BCCF801000000000000002F
S123CD007ECD577ECD677ECDAB7EF1A17EF0447EF1A47EF0227ECEF77ECF3D7ECE2A7ECED1
S123CD20797ECFE97ECEB17ED00A7ECDE47ED0327ED1B07ED0E77ED3547ECF827ECFD07EF9
S123CD40D28A7ED13D7ECFCC7ED1867ED3347EF1A77ECDFF7ECDFF10CEC07F7FCC11BDD4C0
S123CD60007FCC28BDD3FD10CEC07FBDDE188ECD03BFCC168EC700AF9FD3E9BED3E7AF9FBB
S123CD80D3EB8ECCF8BFCC317FCC347FCC4C8D54B6CC11B1CC0226057CCC15200E7DCC2893
S123CDA0102605A2BDD40326B28D7ABDD0D0810D27EB8EC8407CCC0DBDD03225168ECC8C57
S123CDC08D3E2709BECC1227078D3526036E9801BDD2398ECC508615B7CC20BDCE797FCC99
S123CDE0117ECD67BECD13BFCD10BECD0DBFCD0A7FCC237FCC227FCC217FCC267FCC2439A4
S123CE00108EC844A6A0815F23028020A18026086D8426F06DA4270C6D8026FC30026D84AD
S123CE2026DE1CFB39BECC4E8D4F8EC080BFCC14BDCEF7B1CC0127EDB1CC002718810D27F4
S123CE400D810A272B811F23E78CC0FF27E2A780810D26DC398CC08027CB301FB6CC0781DF
S123CE600826088620BDCF62B6CC07BDCF6220C0860DBDCF3D862020D08D36A68481042702
S123CE8073BDCF3D300120F3BDCD4E2769AD9FD3E5847FB1CC0A265E7FCC1AAD9FD3E584A7
S123CEA07FB1CC0A2750810D26F17FCC116E9FCC167DCC2126278DD0B6CC032720B1CC1A8A
S123CEC022187FCC1A7DCC0927028DCC3404F6CC0827058D085A26FB35047CCC1A860D8DE2
S123CEE05C860A8D583404F6CC0527064F8D4E5A26FA35041CFE397DCC23261A7DCC2627BF
S123CF00108D1A7DCC2F27117DCC24270C8D532008BDCD092003BDCD0C7FCC1A39BFCC4742
S123CF20BECC262006BFCC47BECC24BDD4062604BECC47397FCC24BDD28A7ECD037DCC218C
S123CF402620811F22057FCC2920177CCC293402B6CC04270BB1CC292406BDCEB17CCC2939
S123CF60350234027DCC2226137DCC2427048DB5200D7DCC262608BDCD0F2003BDCD12356B
S123CF8002397FCC4AF7CC1D8604B7D40DEC848ECC998D0B30027AD40D26F71F98203D7F83
S123CFA0CC4B10A3002507A3007CCC4B20F43402B6CC4B26107DCC4A260B7DCC1D270B8612
S123CFC0208D2320057CCC4A8D1235828D023001A6008D04A600200444444444840F8B3051
S123CFE0813923028B077ECF3D81302514813923168141250C815A230E81612504817A232D
S123D000061A01B7CC11391CFE393410BECC14B6CC18B7CC19A680B7CC18810D2710B1CCB0
S123D02002270BBFCC1481202604A10027E78DB935908615A70186FFA7036F046F0CBDD0A7
S123D040D08608B7CC4B8D34252E260F8D2E25282609BCCC3F276C8D232368BECC3F6D0451
S123D06027616D032A0F7DCC0D2705B6CC0B2003B6CC0CA7037FCC0DBECC3F398D8C254336
S123D08081392215BECC3F6D032A388403A703BDD00A242F812E1CFE39F6CC4B2B2534044E
S123D0A0C005F7CC4B3504B1CC4925028020A70430015ABDD00A2408812D2704815F2606F5
S123D0C05D26E41A01395D27CB6F0430015A20F6BFCC3FBECC14A60081202604300120F60E
S123D0E0BFCC14BECC3F393430E60C261E318C1D810F2217C6033D31ABC603A6A0B1CC4997
S123D10025028020A70C30015A26F035B062696E747874636D6462617373797362616B7308
S123D12063726461746261636469727072746F757472656C726669646576617263BDD22919
S123D140BDD00A25228D2625183404C60478CC1C79CC1B5A26F73504BBCC1CB7CC1C5C20CD
S123D160DFBDD00A24FB39BECC1B1CFE39815F2302802080472A0C8B062A048B072A048B39
S123D1800A2AE71A0139BDD229BDD00A25D9813922CF840F34043402FCCC1B58495849F30B
S123D1A0CC1B5849EBE08900FDCC1B35045C20D97FCC1D8D3D81022715811626F68D33B702
S123D1C0CC1E8D2EB7CC1F8601B7CC1D20E58D221F898D1E1E89F3CC1BFDCC3D8D141F8906
S123D1E04D27D08D0DBECC3DA780BFCC3D5A26F320C18EC840BDD4062711A6018108260E7A
S123D20032628604A700BDD406260A1CFE39B7CC20810427728D737ECDDE86008D35250FC5
S123D2208D077CCC4C8D8920F14F5FFDCC1B39F6CC4C1027FB9D7ECD0386028D228DEABD3A
S123D240D1B0F6CC1D27046E9FCC1E8ECC5686817ECDD834028EC840BDD0323502251A8EDF
S123D260C840BDD0E78EC8408601A700BDD1F2102500BB86FFA7883B39B6CC11810D270783
S123D280B1CC021026FB4C1A01393430A601B7CC202763BDCDE410BECC2D2608811027588F
S123D2A0108ECCA18EC8406D0227098604A700BDD406262E8EC838C60B8D6E8EC840B6CC9C
S123D2C00BA7038601A700BDD4062616B6CC204A47474C6F8820A788218615A700BDD4068E
S123D2E0271E8ECC6FBDCE79BECC3FB6CC20A7016F005FBDCF8235B08ECC7CBDCE7920F654
S123D300BDCEB18EC840B6CC204A8403C63F3DCB04E78822BDD40626C9BDCF3D810D26F42B
S123D3208604A700BDD40620CD34307ED0FB8ECC657ECDDB3506FDCC4310FFCC457FCC20D0
S123D3407CCC287ECDB27FCC2810FECC45F6CC206E9FCC433A397DCCFC26046E9FD3F38E89
S10FD360C840861BA701BDD28A7ECD67A1
S122D3E1F07AF086F259F066DFC2DFC8F0AAF0A9F0A2F008F015F29EF28CF2737EC400E9
S123D4007ED43A7ED45D7ED47F0000000000000000000000000000000000000000000000FC
S123D420000000000000000000000000000000000000000000FF00000000BDDE158ED409CE
S123D440C60A8D118E0005BFD413BFD4157FD41A8ED41BC61A6F805A26FB7EC70CBDC70967
S123D460BED40927EB3088E4BFD40B3420BDDADB352024ECBED40B6F02BDC70CC6FF397D7D
S123D480CCFC2703BDC7093424BFD40B6F01E6002622E602271AC1022711BDD5BDBED40B65
S123D4A025267DCCFC26235F352439BDD6D820EDC6122014C1162304C601200C5A588ED415
S123D4C0D2AD95BED40B2402E701BDC70C6D01352439D990D9E3DB11DADBD5EBD826D8415C
S123D4E0D880D64AD6A8D973DBEEDB44D6A2DA9FD819D578D599DB1FDDD6DD14DCFE8D213B
S123D5002605C6021A0139ED84AE846F846F01398D0F2705C60D1A0139EC9800ED841CFE83
S123D52039FCD40BC3001C8ED40910AE8426031CFB3910A384260139AE8420EEBED40B4F0B
S123D5405F8D02C62FA7881130015A26F839BED40BC60BA604A7882430015A26F639BED4E5
S123D5600BC60BA6048A203402A688248A20A1E0260530015A26EC39BED40BE6025424794D
S123D580E688237ED609BED40BE688226C88223AA788405C261F1A0139BED40BE602C4036C
S123D5A0C1032655CA80E702E60FC580260AE688233AA788401CFE39C60B1A0139A6883B70
S123D5C02B3C27076A883B8620201D8D31251B8118221527F68109260C8D23250DBED40B7C
S123D5E0A7883B20D84D27E31CFE39BDDAC9250985012705A7007ED9AAC6121A0139BED475
S123D6000BE68822270A6C88223AA688401CFE398D0324EA39BED40BEC88406C88212603C3
S123D6206C882010830000271CED881E34028604A7882235028D132410C5802704C61020E7
S123D64006C6092002C6081A01398D25BED40BBDF17725128D11BDDE0026031CFE39340415
S123D6608D17350424EE39BED40BEC881E308840394FB7D411B7D41239C5102611C58026E6
S123D68024F6D4115CC1052705F7D41120147FD411F6D4125CC107270CF7D412BED40BBD5B
S123D6A0DE091CFE391A01398DC7BED40BBDF1772520BED40B8DB0BDDE03260AB6D43527EF
S123D6C037BDF1562732C540260B34048DAB350424E039C6201A0139BED40BE6883B2B3DAE
S123D6E08120260F5CE7883BC17F260C200D8D0B24E6395D272720F61CFE393402C101269E
S123D700048620201086098D143502250F3402BED40BA6883B6F883B8D03350239BED40B85
S123D720E602C1021026FED1E68822C104260834028D213502250FBDD586240AC604BED4C1
S123D7400BE788221CFE39BED40B4F5FED8820ED88422027E688122622E6881727446F8849
S123D760178D3F252A8DE025268DDC2522BED40BC602E78817EC88117EDC9A8D0EBED40B6F
S123D780ED8840BDD6A8241A7EDBD98D03EC8439BED40BE60386063D8ED41D3ABFD41B6DC9
S123D7A084398DE72605C6071A0139BED40BED88136D88122603ED88116C881626036C88E6
S123D7C0156D8817270BBDDC5B25DDBED40BEC8813BDD62925D2BED40BEC884034068DB05D
S123D7E03506ED84260A6F026F036F046F05200810AE04313F10AF044FBED40B6C8821263B
S123D800036C88205FA7884030015A26F8BED40BEC8820ED88421CFE395F3404C603200EAD
S123D820BED415BFD413F6D4133404F6D414BED40BE788413504E788407FD4185FE7882214
S123D84039BED40BE68822261EBDD6152531BED40B7DD4182606CC0005FDD4188610A7886B
S123D86022EC881EED882FA68822A78831C6183414BDD5FE3514A70430015A26F21CFE39FC
S123D880BED40BA68831A78822C6183414A604BDD71D351430015A26F27ED6A8BED40BA68B
S123D8A003A78823B6D4177DD41A2631A703BED415BFD4138C0005270C8D222337BED4183E
S123D8C0BFD41320EFBED40BA68823A7032A0EBDDDD625368D07231CBDDDC620F2BED40B12
S123D8E07FD41ABDD54EBDD826BDD8412407C10827181A0139BED40BA604270C2A028D0F7D
S123D900BDD55E26E41CFE398D051CFB1CFE39A68833260CEC882FED8832A68831A788341B
S123D92039BDD79026178D182515C60610BED40BBED41BA6A85D3121A7805A26F61CFE3957
S123D940BDD819BDD6152508BED40BC610E7882239BDD7908DEA25F8C60610BED40BBED440
S123D9601BA680A7A85D31215A26F6BDD6A824E07EDBD9BED40B8602A702EC882FED881E79
S123D980BDD64A2508BDD88024057EDBD9C60A39BDD4FE253DBDD89C2538263BBED40B7D06
S123D9A0D41A2706A60F85202629BDDCD9252AEC8811ED8840BDDA8EE6881727133404BDCB
S123D9C0D6153504250C5A26F4BED40B5FE788221CFE39C6112002C6043404BDD5103504C4
S123D9E01A0139BED40B6D032A08BDDDD62403C61039BDD4FE25E2BDD53CBDD92125DABD13
S123DA00D89C25D52604C60320CFBDDCD925CABED40BC60A6F0F30015A26F9BED40BEC88AB
S123DA20322734ED882FA68834A78831FCCC0EED8819B6CC10A7881BA6038ED436A686BE84
S123DA40D40BA78818BDDDC6BDD973258C8D3F8604A788221CFE39BED40B6F88176C8812D7
S123DA60EC882FBDD629250DBDD77B2508BDD6A82406BDDBD97ED9D9BED40BEC881EED882B
S123DA80328610A78834BDD95125EA7EDA0ABED40BA600A7026F006F883B4FA78822398D0C
S123DAA028250E6F84441025FB6BC604E788221CFE39BED40BA6028183260B8603A702BD1E
S123DAC0D6A8102501131CFE398DE7250DBED40BA602810323F0C6121A01398DEC2531812A
S123DAE0022708BED40B6F027ED510A688122605BDDBBF20198DC82517BED40B6D88172724
S123DB0005BDDCB0250ABDD9732505BDD95124D339BDD9902528BDD615252386032018BD59
S123DB20D990251ABED40BA60F85802612EC8813BDD62925098602BED40BA7021CFE39C652
S123DB400B1A01398D35BDD89C252A2724BED40BC60BA68824A70430015A26F68D4D2515AF
S123DB60BED40BA60F858026D6856026098D0C2055C6031A0139C60C1A0139BED40B860BBB
S123DB80B7D411A604E68835A78835E70430017AD41126EFBED40BA60C260CC603A6883DEF
S123DBA0A70C30015A26F6BED40B398DCEBDD89C25072606BED40B1CFE39C6041A0139BE81
S123DBC0D40B86FFA704BDD973BED40B8600A70239ED8840BDD6A82414C5402608C580275D
S123DBE00AC6102006C60B2002C60A1A0139BDD921255E8DB8255ABED40BA60F8580265237
S123DC0085602652BDD790BED41BEC02260FBED40BEC88112733BED41BED842014BED40B44
S123DC20BDD629252CBED40BEC8811271C8DA22520BED40BEC8813BED41BED02BED40BECB1
S123DC408815BED41BE304ED04BDDBBF2503BDD95139C60B2002C60C1A0139EC881E5CE117
S123DC60883C2303C6014C10A38813260EA6883781FF27074CA788371CFE398D332530BE36
S123DC80D40BA6883A8B032616EC881E10A388112705C6171A0139EC8840ED88388604A7A2
S123DCA0883AEC8813ED88358601A788371CFE39EC8838BDD62925F7BED40B1F12E6883A33
S123DCC0123AC603A6A8353121A7884030015A26F3BDD6A824D97EDBD9BDD819BDD615255E
S123DCE046BED40B4F5FED8820A68867A7883C5F6F884030015A26F8BED40B1CFE39BED439
S123DD000BA68817271DEC88208300012A037EDDB3ED8820BDDAC9250E4624076F84A6885E
S123DD20172605C6121A01397FD411EC881110AE8820276ABDDDB825EE4F5F6D022774EB89
S123DD40028900BFD40FBED40B10A38820242CBED40F30033402B6D4114CB7D411815427C1
S123DD600881A83502274C20D23404BED40BEC88408D45253E3504350220C0A38820BED4E7
S123DD800FA6023404A0E04A1F89A684EB01BED40B2505E1883C2306E0883C4C20F5BDD6DB
S123DDA0292514BED40BEC884210A388202714C6192002C6181A0139BDD6292508BED40B5B
S123DDC0C6443A1CFE39BED40BC60BA68824A70430015A26F639BED40BA6034C8104240F13
S117DDE0A7032605BDDE0F2003BDDE1225E839C6101A01396C
S123DE007EF11D7EF1457EF1567EF1737EF1777EF1847EF1847EF15A7EF1687EF1580000E4
S123DE2000000000000000000000EC000000000000010000E809F0AB0000800000000000E5
S10EDE400000001F3F7F0703010F00DC
S123F0007EF18F39860D3939860A8D16860D8D123F087ECD03BDF3E9397DDE32270AAD9FDA
S123F020DE327EF0577EF02B7EF03E3402B6EF058508260535021A043935021CFB39BDF058
S123F040447EF057BDF04A24FB39B6EF05444444442403B6EF04393404F6EF05C51027F97A
S123F060B7EF04350439FEDE2BEE44270CA6D4A54627F610AEC46ED8023B34708D1427040D
S123F080EF04AF2435F034708D082604AE04AF4435F0FEDE2B31C4AC442706EE4426F61CD1
S123F0A0FB398EDE346E9FD3E13939B6E8087CD373B6D373816426567FD3737CD372B6D371
S123F0C072813C26497FD3727CD371B6D371813C263C7FD3717CD370B6D3708118262F7F09
S123F0E0D3707CCC0FB6CC0F308D0025F6CC0E5A30854CA18426178601B7CC0F7CCC0EB64D
S123F100CC0E810D26088601B7CC0E7CCC107EC7001F1C1F1E1F1E1F1F1E1F1E1FBFDE4155
S123F120F7DE3CB7DE3B8D0CBDF195C1FF27025F39C60139B7DE3B27035A20045D27015A36
S123F140F7DE3C3939BFDE41B7DE3BF7DE3C8DE47EF192C608395F395F39BDF0158EDE1E74
S123F160C60C6F805A26FB39BDF0157DCC3026028680398D025F39A603810323014FB7DE18
S123F1803D1CFE395F1CFE398D008D008D00397EF4427EF1E27EF3F97EF2427EF24C7EF2FC
S110F1A0387EF2737EF28C7EF29E7EF34B7D
S114F1CFBDF3E9BDF39F850127F9BDF3C3BDF3267ED6
S123F1E0F1D286EEBDF2DEBDF35F850427F98602BDF2DEB6DE3DBDF2DEB6DE3CBDF2DEB609
S123F200DE3BBDF2DE4FBDF2DEB6DE42BDF2DEB6DE41BDF2DEBDF35F851027F9BEDE415FA3
S123F220A600BDF30230015A26F686AABDF2DEBDF35F852027F95F39BDF39F84012702861F
S123F240FF39BDF39F4D27FABDF3C339BDF326397EF0197EF0227EF0253404F6ED00C5026E
S123F260270535047EF0443504BDF39F850127F91601503404F6ED00C5022704350420D0A8
S123F2803504BDF39F850127F91701373404F6ED00C5022704350420BA35041600883402C0
S123F2A0B6ED0085022704350220ABBDF39F8501260535021A043935021CFB398680B5EE35
S123F2C00E27FB39C6FFF7EE0CC604F7EE0DB7EE0C39C600F7EE0E7FEE0D7FEE0C39340448
S123F2E0C6FFF7EE0CC604F7EE0DB7EE0CC661F7EE0E8DC8C600F7EE0E7FEE0D7FEE0C3597
S123F30004393404C6FFF7EE0CC604F7EE0DB7EE0CC671F7EE0E8DA4C600F7EE0E7FEE0DC3
S123F3207FEE0C3504393406C6FFF7EE0CC604F7EE0DB7EE0CC651F7EE0EBDF2BCC600F74F
S123F340EE0E7FEE0D7FEE0C350639340417FF74C604F7EE0E5F5A26FD17FF7635043934B9
S123F36004C604F7EE0DC621F7EE0EBDF2BCB6EE0CC600F7EE0E7FEE0D7FEE0C3504393482
S123F38004C604F7EE0DC631F7EE0EBDF2BCB6EE0CC600F7EE0E7FEE0D7FEE0C3504393452
S123F3A004F6DE4AC10D2716C604F7EE0DC601F7EE0EBDF2BCB6EE0C17FF17350439860165
S123F3C03504393404F6DE4AC10D2719C604F7EE0DC611F7EE0EBDF2BCB6EE0C17FEF33575
S123F3E004B7DE4A39860A20F67FEE0F8675B7EE0E8604B7EE0F16FED986EEBDF2DEBDF341
S123F4005F850427F98601BDF2DEB6DE3DBDF2DEB6DE3CBDF2DEB6DE3BBDF2DE4FBDF2DED9
S123F420B6DE42BDF2DEB6DE41BDF2DEBDF35F851027F9BEDE415FBDF37FA78430015A26F8
S123F440F639BDF3E9B6EE0E858027F98EC0006F0030018CDEFF26F7860FB7DE3D4FB7DE4A
S123F4603C7FDE3B8EC400BFDE41C61B34043402BDF195BFDE41860FB7DE3D35024CB7DE95
S123F4803C35045A26E67FDE3C7FDE3D7ECD00BDF5A4BDF50DBDF4D27ECD03BDF50DBDF5B8
S123F4A067BDF676BDF6C9392404C6302002C610F7ED00CA40F7ED0039448DEC448DE94427
S123F4C08DE6448DE3448DE0448DDD448DDA448DD739C670F7ED027FED0086BE8DDBB6DE4E
S123F4E0488DD6B6DE478DD1B6DE468DCCB6DE448DC7B6DE438DC2B6DE498DBDB6DE458D12
S123F500B886008DB486A58DB07FED0039C670F7ED027FED00868E8DA086008D9C7FED0077
S123F520393402C610F7ED00B6ED00C650F7ED0084203502394F8DE927028A018DE32702DB
S123F5408A028DDD27028A048DD727028A088DD127028A108DCB27028A208DC527028A404A
S123F5608DBF27028A8039C670F7ED027FED0086BFBDF4B9C650F7ED028DBAB7DE488DB536
S123F580B7DE478DB0B7DE468DABB7DE448DA6B7DE438DA1B7DE498D9CB7DE458D978D9502
S123F5A07FED003912308D0066BDCE79108EDE438D148D128D108D0E8D0C8D0A8EF65BBD66
S123F5C0CE79BDCEB139BDF5D62404326220D6C16322F8E7A0398E0000BFD40D5FBDF6658E
S123F5E0252A813025208030B7D40DBDF665251C8130251280303402F6D40D58585858EB31
S123F600E0F7D40D20E5BED40D1CFE391A0139454E544552204441544520414E4420544977
S123F6204D45284D4D2C44442C59592D48482C4D492C5353293A20044441544520414E44F7
S123F6402054494D45284D4D2C44442C59592D48482C4D492C5353293A20045448414E4BB5
S123F66020594F5504BDCEF7812027F9813923031A01391CFE398EDE43BDCFD0862FBDCF4F
S123F6803D8EDE44BDCFD0862FBDCF3D8EDE45BDCFD0862DBDCF3D8EDE46BDCFD0863ABD8B
S123F6A0CF3D8EDE47BDCFD0863ABDCF3D8EDE48BDCFD0BDCEB139A60044444444C60A3D5A
S123F6C03404E600C40FEBE0398EDE43BDF6B7F7CC0E8EDE45BDF6B7F7CC108EDE44BDF6F6
S123F6E0B7F7CC0F8EDE46BDF6B7F7D3708EDE47BDF6B7F7D3718EDE48BDF6B7F7D372393C
S50300DD1F
S903C850E4
